{
  "contractName": "Derivatives",
  "abi": [
    {
      "inputs": [],
      "stateMutability": "nonpayable",
      "type": "constructor"
    },
    {
      "anonymous": false,
      "inputs": [
        {
          "indexed": false,
          "internalType": "string",
          "name": "msg",
          "type": "string"
        }
      ],
      "name": "shareEvent",
      "type": "event"
    },
    {
      "inputs": [],
      "name": "derivativeCount",
      "outputs": [
        {
          "internalType": "uint256",
          "name": "",
          "type": "uint256"
        }
      ],
      "stateMutability": "view",
      "type": "function",
      "constant": true
    },
    {
      "inputs": [
        {
          "internalType": "uint256",
          "name": "",
          "type": "uint256"
        }
      ],
      "name": "derivatives",
      "outputs": [
        {
          "internalType": "uint256",
          "name": "id",
          "type": "uint256"
        },
        {
          "internalType": "uint256",
          "name": "bet",
          "type": "uint256"
        },
        {
          "internalType": "uint256",
          "name": "expiration",
          "type": "uint256"
        },
        {
          "internalType": "uint256",
          "name": "strike",
          "type": "uint256"
        },
        {
          "internalType": "string",
          "name": "lower",
          "type": "string"
        },
        {
          "internalType": "string",
          "name": "higher",
          "type": "string"
        },
        {
          "internalType": "bool",
          "name": "open",
          "type": "bool"
        },
        {
          "internalType": "uint256",
          "name": "underlying",
          "type": "uint256"
        },
        {
          "internalType": "uint256",
          "name": "etherAmount",
          "type": "uint256"
        },
        {
          "internalType": "address payable",
          "name": "lowerAddress",
          "type": "address"
        },
        {
          "internalType": "address payable",
          "name": "higherAddress",
          "type": "address"
        }
      ],
      "stateMutability": "view",
      "type": "function",
      "constant": true
    },
    {
      "inputs": [],
      "name": "password1",
      "outputs": [
        {
          "internalType": "string",
          "name": "",
          "type": "string"
        }
      ],
      "stateMutability": "view",
      "type": "function",
      "constant": true
    },
    {
      "inputs": [],
      "name": "password2",
      "outputs": [
        {
          "internalType": "string",
          "name": "",
          "type": "string"
        }
      ],
      "stateMutability": "view",
      "type": "function",
      "constant": true
    },
    {
      "inputs": [],
      "name": "password3",
      "outputs": [
        {
          "internalType": "string",
          "name": "",
          "type": "string"
        }
      ],
      "stateMutability": "view",
      "type": "function",
      "constant": true
    },
    {
      "inputs": [],
      "name": "password4",
      "outputs": [
        {
          "internalType": "string",
          "name": "",
          "type": "string"
        }
      ],
      "stateMutability": "view",
      "type": "function",
      "constant": true
    },
    {
      "inputs": [],
      "name": "shareCount",
      "outputs": [
        {
          "internalType": "uint256",
          "name": "",
          "type": "uint256"
        }
      ],
      "stateMutability": "view",
      "type": "function",
      "constant": true
    },
    {
      "inputs": [
        {
          "internalType": "uint256",
          "name": "",
          "type": "uint256"
        }
      ],
      "name": "shares",
      "outputs": [
        {
          "internalType": "string",
          "name": "name",
          "type": "string"
        },
        {
          "internalType": "uint256",
          "name": "price",
          "type": "uint256"
        },
        {
          "internalType": "string",
          "name": "abbr",
          "type": "string"
        }
      ],
      "stateMutability": "view",
      "type": "function",
      "constant": true
    },
    {
      "inputs": [],
      "name": "getUnderlyings",
      "outputs": [
        {
          "internalType": "string[]",
          "name": "",
          "type": "string[]"
        }
      ],
      "stateMutability": "view",
      "type": "function",
      "constant": true
    },
    {
      "inputs": [
        {
          "internalType": "uint256",
          "name": "_user",
          "type": "uint256"
        }
      ],
      "name": "getPassword",
      "outputs": [
        {
          "internalType": "string",
          "name": "",
          "type": "string"
        }
      ],
      "stateMutability": "view",
      "type": "function",
      "constant": true
    },
    {
      "inputs": [
        {
          "internalType": "uint256",
          "name": "_price",
          "type": "uint256"
        },
        {
          "internalType": "string",
          "name": "_shareName",
          "type": "string"
        }
      ],
      "name": "setPrice",
      "outputs": [
        {
          "internalType": "string",
          "name": "",
          "type": "string"
        }
      ],
      "stateMutability": "nonpayable",
      "type": "function"
    },
    {
      "inputs": [
        {
          "internalType": "string",
          "name": "_shareName",
          "type": "string"
        }
      ],
      "name": "getShareInfo",
      "outputs": [
        {
          "internalType": "uint256",
          "name": "price",
          "type": "uint256"
        },
        {
          "internalType": "string",
          "name": "abbr",
          "type": "string"
        }
      ],
      "stateMutability": "view",
      "type": "function",
      "constant": true
    },
    {
      "inputs": [
        {
          "internalType": "uint256",
          "name": "bet",
          "type": "uint256"
        },
        {
          "internalType": "uint256",
          "name": "expiration",
          "type": "uint256"
        },
        {
          "internalType": "uint256",
          "name": "strike",
          "type": "uint256"
        },
        {
          "internalType": "string",
          "name": "lower",
          "type": "string"
        },
        {
          "internalType": "string",
          "name": "higher",
          "type": "string"
        },
        {
          "internalType": "uint256",
          "name": "underlying",
          "type": "uint256"
        }
      ],
      "name": "createBet",
      "outputs": [],
      "stateMutability": "payable",
      "type": "function",
      "payable": true
    },
    {
      "inputs": [
        {
          "internalType": "uint256",
          "name": "selectedDerivative",
          "type": "uint256"
        },
        {
          "internalType": "string",
          "name": "lower",
          "type": "string"
        },
        {
          "internalType": "string",
          "name": "higher",
          "type": "string"
        }
      ],
      "name": "participateInBet",
      "outputs": [],
      "stateMutability": "payable",
      "type": "function",
      "payable": true
    },
    {
      "inputs": [],
      "name": "getOpenDerivatives",
      "outputs": [
        {
          "components": [
            {
              "internalType": "uint256",
              "name": "id",
              "type": "uint256"
            },
            {
              "internalType": "uint256",
              "name": "bet",
              "type": "uint256"
            },
            {
              "internalType": "uint256",
              "name": "expiration",
              "type": "uint256"
            },
            {
              "internalType": "uint256",
              "name": "strike",
              "type": "uint256"
            },
            {
              "internalType": "string",
              "name": "lower",
              "type": "string"
            },
            {
              "internalType": "string",
              "name": "higher",
              "type": "string"
            },
            {
              "internalType": "bool",
              "name": "open",
              "type": "bool"
            },
            {
              "internalType": "uint256",
              "name": "underlying",
              "type": "uint256"
            },
            {
              "internalType": "uint256",
              "name": "etherAmount",
              "type": "uint256"
            },
            {
              "internalType": "address payable",
              "name": "lowerAddress",
              "type": "address"
            },
            {
              "internalType": "address payable",
              "name": "higherAddress",
              "type": "address"
            }
          ],
          "internalType": "struct Derivatives.Derivative[]",
          "name": "",
          "type": "tuple[]"
        }
      ],
      "stateMutability": "view",
      "type": "function",
      "constant": true
    },
    {
      "inputs": [],
      "name": "getClosedDerivatives",
      "outputs": [
        {
          "components": [
            {
              "internalType": "uint256",
              "name": "id",
              "type": "uint256"
            },
            {
              "internalType": "uint256",
              "name": "bet",
              "type": "uint256"
            },
            {
              "internalType": "uint256",
              "name": "expiration",
              "type": "uint256"
            },
            {
              "internalType": "uint256",
              "name": "strike",
              "type": "uint256"
            },
            {
              "internalType": "string",
              "name": "lower",
              "type": "string"
            },
            {
              "internalType": "string",
              "name": "higher",
              "type": "string"
            },
            {
              "internalType": "bool",
              "name": "open",
              "type": "bool"
            },
            {
              "internalType": "uint256",
              "name": "underlying",
              "type": "uint256"
            },
            {
              "internalType": "uint256",
              "name": "etherAmount",
              "type": "uint256"
            },
            {
              "internalType": "address payable",
              "name": "lowerAddress",
              "type": "address"
            },
            {
              "internalType": "address payable",
              "name": "higherAddress",
              "type": "address"
            }
          ],
          "internalType": "struct Derivatives.Derivative[]",
          "name": "",
          "type": "tuple[]"
        }
      ],
      "stateMutability": "view",
      "type": "function",
      "constant": true
    },
    {
      "inputs": [],
      "name": "checkDerivative",
      "outputs": [],
      "stateMutability": "nonpayable",
      "type": "function"
    },
    {
      "inputs": [],
      "name": "test",
      "outputs": [
        {
          "internalType": "string",
          "name": "",
          "type": "string"
        }
      ],
      "stateMutability": "nonpayable",
      "type": "function"
    },
    {
      "inputs": [
        {
          "internalType": "uint256",
          "name": "v",
          "type": "uint256"
        }
      ],
      "name": "uintToString",
      "outputs": [
        {
          "internalType": "string",
          "name": "",
          "type": "string"
        }
      ],
      "stateMutability": "pure",
      "type": "function",
      "constant": true
    }
  ],
  "bytecode": "0x608060405260008055600360015560405180606001604052806040518060400160405280600e81526020017f47656e6572616c204d6f746f727300000000000000000000000000000000000081525081526020016040518060400160405280600581526020017f4170706c6500000000000000000000000000000000000000000000000000000081525081526020016040518060400160405280600781526020017f426974636f696e000000000000000000000000000000000000000000000000008152508152506002906003620000d992919062000491565b5060405180606001604052806040518060400160405280600281526020017f474d00000000000000000000000000000000000000000000000000000000000081525081526020016040518060400160405280600481526020017f4141504c0000000000000000000000000000000000000000000000000000000081525081526020016040518060400160405280600381526020017f42544300000000000000000000000000000000000000000000000000000000008152508152506003906003620001a692919062000491565b506040518061022001604052806101e9815260200162004f0b6101e9913960049080519060200190620001db929190620004f8565b506040518061022001604052806101e9815260200162004b396101e991396005908051906020019062000210929190620004f8565b506040518061022001604052806101e9815260200162004d226101e991396006908051906020019062000245929190620004f8565b506040518061022001604052806101e98152602001620050f46101e99139600790805190602001906200027a929190620004f8565b503480156200028857600080fd5b5060008090505b6001548110156200048a57604051806060016040528060028381548110620002b357fe5b906000526020600020018054600181600116156101000203166002900480601f016020809104026020016040519081016040528092919081815260200182805460018160011615610100020316600290048015620003555780601f10620003295761010080835404028352916020019162000355565b820191906000526020600020905b8154815290600101906020018083116200033757829003601f168201915b5050505050815260200160c88152602001600383815481106200037457fe5b906000526020600020018054600181600116156101000203166002900480601f016020809104026020016040519081016040528092919081815260200182805460018160011615610100020316600290048015620004165780601f10620003ea5761010080835404028352916020019162000416565b820191906000526020600020905b815481529060010190602001808311620003f857829003601f168201915b50505050508152506008600083815260200190815260200160002060008201518160000190805190602001906200044f9291906200057f565b50602082015181600101556040820151816002019080519060200190620004789291906200057f565b5090505080806001019150506200028f565b50620006ab565b828054828255906000526020600020908101928215620004e5579160200282015b82811115620004e4578251829080519060200190620004d39291906200057f565b5091602001919060010190620004b2565b5b509050620004f4919062000606565b5090565b828054600181600116156101000203166002900490600052602060002090601f016020900481019282601f106200053b57805160ff19168380011785556200056c565b828001600101855582156200056c579182015b828111156200056b5782518255916020019190600101906200054e565b5b5090506200057b919062000637565b5090565b828054600181600116156101000203166002900490600052602060002090601f016020900481019282601f10620005c257805160ff1916838001178555620005f3565b82800160010185558215620005f3579182015b82811115620005f2578251825591602001919060010190620005d5565b5b50905062000602919062000637565b5090565b6200063491905b808211156200063057600081816200062691906200065f565b506001016200060d565b5090565b90565b6200065c91905b80821115620006585760008160009055506001016200063e565b5090565b90565b50805460018160011615610100020316600290046000825580601f10620006875750620006a8565b601f016020900490600052602060002090810190620006a7919062000637565b5b50565b61447e80620006bb6000396000f3fe6080604052600436106101145760003560e01c80639bb92aac116100a0578063e939567911610064578063e939567914610396578063f38c6bb6146103d3578063f65baefa14610410578063f7a9af031461043b578063f8a8fd6d1461046657610114565b80639bb92aac14610291578063ae3c1239146102bc578063af8ea4e3146102e7578063c0046e3914610324578063cde8f8511461036b57610114565b80636453627c116100e75780636453627c146101b65780637c076c19146101e15780637de245c11461021f5780637f03864b1461023b5780638a4790771461026657610114565b8063324ee0c8146101195780634dbf3d8a1461013557806357a858fc1461014c578063589ba0131461018b575b600080fd5b610133600480360361012e91908101906136ce565b610491565b005b34801561014157600080fd5b5061014a610714565b005b34801561015857600080fd5b50610173600480360361016e91908101906135ce565b610f1e565b60405161018293929190613fe0565b60405180910390f35b34801561019757600080fd5b506101a0611078565b6040516101ad9190613f7a565b60405180910390f35b3480156101c257600080fd5b506101cb6113f5565b6040516101d89190613f9c565b60405180910390f35b3480156101ed57600080fd5b5061020860048036036102039190810190613589565b611493565b604051610216929190614180565b60405180910390f35b6102396004803603610234919081019061364f565b61163b565b005b34801561024757600080fd5b50610250611fcc565b60405161025d9190614165565b60405180910390f35b34801561027257600080fd5b5061027b611fd2565b6040516102889190613f9c565b60405180910390f35b34801561029d57600080fd5b506102a6612070565b6040516102b39190613f7a565b60405180910390f35b3480156102c857600080fd5b506102d16123e1565b6040516102de9190613f9c565b60405180910390f35b3480156102f357600080fd5b5061030e600480360361030991908101906135f7565b61247f565b60405161031b9190613fbe565b60405180910390f35b34801561033057600080fd5b5061034b600480360361034691908101906135ce565b6125c5565b6040516103629b9a999897969594939291906141b0565b60405180910390f35b34801561037757600080fd5b5061038061279c565b60405161038d9190614165565b60405180910390f35b3480156103a257600080fd5b506103bd60048036036103b891908101906135ce565b6127a2565b6040516103ca9190613fbe565b60405180910390f35b3480156103df57600080fd5b506103fa60048036036103f591908101906135ce565b612917565b6040516104079190613fbe565b60405180910390f35b34801561041c57600080fd5b50610425612c03565b6040516104329190613f58565b60405180910390f35b34801561044757600080fd5b50610450612cec565b60405161045d9190613f9c565b60405180910390f35b34801561047257600080fd5b5061047b612d8a565b6040516104889190613fbe565b60405180910390f35b6000670de0b6b3a764000087029050806040516020016104b19190613f3d565b60405160208183030381529060405280519060200120346040516020016104d89190613f3d565b604051602081830303815290604052805190602001201461052e576040517f08c379a000000000000000000000000000000000000000000000000000000000815260040161052590614025565b60405180910390fd5b6000600190508642019650600034905060405180610160016040528060005481526020018a815260200189815260200188815260200187815260200186815260200183151581526020018581526020018281526020013373ffffffffffffffffffffffffffffffffffffffff1681526020013373ffffffffffffffffffffffffffffffffffffffff168152506009600080548152602001908152602001600020600082015181600001556020820151816001015560408201518160020155606082015181600301556080820151816004019080519060200190610612929190613321565b5060a082015181600501908051906020019061062f929190613321565b5060c08201518160060160006101000a81548160ff02191690831515021790555060e0820151816007015561010082015181600801556101208201518160090160006101000a81548173ffffffffffffffffffffffffffffffffffffffff021916908373ffffffffffffffffffffffffffffffffffffffff16021790555061014082015181600a0160006101000a81548173ffffffffffffffffffffffffffffffffffffffff021916908373ffffffffffffffffffffffffffffffffffffffff1602179055509050506000808154809291906001019190505550505050505050505050565b7f7d5a8cd3479da9be89144b886cabfed55ac19fdb9370f38ac5a986b43a56c5b5604051610741906140c5565b60405180910390a160008090505b600054811015610f1b577f7d5a8cd3479da9be89144b886cabfed55ac19fdb9370f38ac5a986b43a56c5b560405161078690614125565b60405180910390a16107966133a1565b600960008381526020019081526020016000206040518061016001604052908160008201548152602001600182015481526020016002820154815260200160038201548152602001600482018054600181600116156101000203166002900480601f0160208091040260200160405190810160405280929190818152602001828054600181600116156101000203166002900480156108765780601f1061084b57610100808354040283529160200191610876565b820191906000526020600020905b81548152906001019060200180831161085957829003601f168201915b50505050508152602001600582018054600181600116156101000203166002900480601f0160208091040260200160405190810160405280929190818152602001828054600181600116156101000203166002900480156109185780601f106108ed57610100808354040283529160200191610918565b820191906000526020600020905b8154815290600101906020018083116108fb57829003601f168201915b505050505081526020016006820160009054906101000a900460ff1615151515815260200160078201548152602001600882015481526020016009820160009054906101000a900473ffffffffffffffffffffffffffffffffffffffff1673ffffffffffffffffffffffffffffffffffffffff1673ffffffffffffffffffffffffffffffffffffffff168152602001600a820160009054906101000a900473ffffffffffffffffffffffffffffffffffffffff1673ffffffffffffffffffffffffffffffffffffffff1673ffffffffffffffffffffffffffffffffffffffff1681525050905060008161010001511115610f0d577f7d5a8cd3479da9be89144b886cabfed55ac19fdb9370f38ac5a986b43a56c5b5604051610a39906140e5565b60405180910390a18060600151600860008360e001518152602001908152602001600020600101541115610cd6577f7d5a8cd3479da9be89144b886cabfed55ac19fdb9370f38ac5a986b43a56c5b5604051610a9490614085565b60405180910390a1600081610140015190508073ffffffffffffffffffffffffffffffffffffffff166108fc8361010001519081150290604051600060405180830381858888f19350505050158015610af1573d6000803e3d6000fd5b50604051806101600160405280848152602001836020015181526020018360400151815260200183606001518152602001836080015181526020018360a0015181526020018360c00151151581526020018360e0015181526020016000815260200183610120015173ffffffffffffffffffffffffffffffffffffffff16815260200183610140015173ffffffffffffffffffffffffffffffffffffffff1681525060096000858152602001908152602001600020600082015181600001556020820151816001015560408201518160020155606082015181600301556080820151816004019080519060200190610bea929190613321565b5060a0820151816005019080519060200190610c07929190613321565b5060c08201518160060160006101000a81548160ff02191690831515021790555060e0820151816007015561010082015181600801556101208201518160090160006101000a81548173ffffffffffffffffffffffffffffffffffffffff021916908373ffffffffffffffffffffffffffffffffffffffff16021790555061014082015181600a0160006101000a81548173ffffffffffffffffffffffffffffffffffffffff021916908373ffffffffffffffffffffffffffffffffffffffff16021790555090505050610f0c565b600081610120015190508073ffffffffffffffffffffffffffffffffffffffff166108fc8361010001519081150290604051600060405180830381858888f19350505050158015610d2b573d6000803e3d6000fd5b50604051806101600160405280848152602001836020015181526020018360400151815260200183606001518152602001836080015181526020018360a0015181526020018360c00151151581526020018360e0015181526020016000815260200183610120015173ffffffffffffffffffffffffffffffffffffffff16815260200183610140015173ffffffffffffffffffffffffffffffffffffffff1681525060096000858152602001908152602001600020600082015181600001556020820151816001015560408201518160020155606082015181600301556080820151816004019080519060200190610e24929190613321565b5060a0820151816005019080519060200190610e41929190613321565b5060c08201518160060160006101000a81548160ff02191690831515021790555060e0820151816007015561010082015181600801556101208201518160090160006101000a81548173ffffffffffffffffffffffffffffffffffffffff021916908373ffffffffffffffffffffffffffffffffffffffff16021790555061014082015181600a0160006101000a81548173ffffffffffffffffffffffffffffffffffffffff021916908373ffffffffffffffffffffffffffffffffffffffff160217905550905050505b5b50808060010191505061074f565b50565b6008602052806000526040600020600091509050806000018054600181600116156101000203166002900480601f016020809104026020016040519081016040528092919081815260200182805460018160011615610100020316600290048015610fca5780601f10610f9f57610100808354040283529160200191610fca565b820191906000526020600020905b815481529060010190602001808311610fad57829003601f168201915b505050505090806001015490806002018054600181600116156101000203166002900480601f01602080910402602001604051908101604052809291908181526020018280546001816001161561010002031660029004801561106e5780601f106110435761010080835404028352916020019161106e565b820191906000526020600020905b81548152906001019060200180831161105157829003601f168201915b5050505050905083565b6060600080905060008090505b6000548110156110d457600115156009600083815260200190815260200160002060060160009054906101000a900460ff161515146110c75781806001019250505b8080600101915050611085565b5060608160405190808252806020026020018201604052801561111157816020015b6110fe613429565b8152602001906001900390816110f65790505b509050600080905060008090505b6000548110156113eb57600115156009600083815260200190815260200160002060060160009054906101000a900460ff161515146113de57600960008281526020019081526020016000206040518061016001604052908160008201548152602001600182015481526020016002820154815260200160038201548152602001600482018054600181600116156101000203166002900480601f0160208091040260200160405190810160405280929190818152602001828054600181600116156101000203166002900480156112385780601f1061120d57610100808354040283529160200191611238565b820191906000526020600020905b81548152906001019060200180831161121b57829003601f168201915b50505050508152602001600582018054600181600116156101000203166002900480601f0160208091040260200160405190810160405280929190818152602001828054600181600116156101000203166002900480156112da5780601f106112af576101008083540402835291602001916112da565b820191906000526020600020905b8154815290600101906020018083116112bd57829003601f168201915b505050505081526020016006820160009054906101000a900460ff1615151515815260200160078201548152602001600882015481526020016009820160009054906101000a900473ffffffffffffffffffffffffffffffffffffffff1673ffffffffffffffffffffffffffffffffffffffff1673ffffffffffffffffffffffffffffffffffffffff168152602001600a820160009054906101000a900473ffffffffffffffffffffffffffffffffffffffff1673ffffffffffffffffffffffffffffffffffffffff1673ffffffffffffffffffffffffffffffffffffffff16815250508383815181106113ca57fe5b602002602001018190525081806001019250505b808060010191505061111f565b5081935050505090565b60078054600181600116156101000203166002900480601f01602080910402602001604051908101604052809291908181526020018280546001816001161561010002031660029004801561148b5780601f106114605761010080835404028352916020019161148b565b820191906000526020600020905b81548152906001019060200180831161146e57829003601f168201915b505050505081565b6000606060008090505b600180540381116115f35784846040516020016114bb929190613ea6565b60405160208183030381529060405280519060200120600860008381526020019081526020016000206000016040516020016114f79190613f11565b6040516020818303038152906040528051906020012014156115e657600860008281526020019081526020016000206001015460086000838152602001908152602001600020600201808054600181600116156101000203166002900480601f0160208091040260200160405190810160405280929190818152602001828054600181600116156101000203166002900480156115d55780601f106115aa576101008083540402835291602001916115d5565b820191906000526020600020905b8154815290600101906020018083116115b857829003601f168201915b505050505090509250925050611634565b808060010191505061149d565b5060018090506040518060400160405280600481526020017f6661696c00000000000000000000000000000000000000000000000000000000815250915091505b9250929050565b600054831115801561164e575082600011155b61168d576040517f08c379a000000000000000000000000000000000000000000000000000000000815260040161168490614045565b60405180910390fd5b6116956133a1565b600960008581526020019081526020016000206040518061016001604052908160008201548152602001600182015481526020016002820154815260200160038201548152602001600482018054600181600116156101000203166002900480601f0160208091040260200160405190810160405280929190818152602001828054600181600116156101000203166002900480156117755780601f1061174a57610100808354040283529160200191611775565b820191906000526020600020905b81548152906001019060200180831161175857829003601f168201915b50505050508152602001600582018054600181600116156101000203166002900480601f0160208091040260200160405190810160405280929190818152602001828054600181600116156101000203166002900480156118175780601f106117ec57610100808354040283529160200191611817565b820191906000526020600020905b8154815290600101906020018083116117fa57829003601f168201915b505050505081526020016006820160009054906101000a900460ff1615151515815260200160078201548152602001600882015481526020016009820160009054906101000a900473ffffffffffffffffffffffffffffffffffffffff1673ffffffffffffffffffffffffffffffffffffffff1673ffffffffffffffffffffffffffffffffffffffff168152602001600a820160009054906101000a900473ffffffffffffffffffffffffffffffffffffffff1673ffffffffffffffffffffffffffffffffffffffff1673ffffffffffffffffffffffffffffffffffffffff16815250509050600115158160c00151151514611948576040517f08c379a000000000000000000000000000000000000000000000000000000000815260040161193f90614105565b60405180910390fd5b6000670de0b6b3a764000060096000878152602001908152602001600020600101540290508060405160200161197e9190613f3d565b60405160208183030381529060405280519060200120346040516020016119a59190613f3d565b60405160208183030381529060405280519060200120146119fb576040517f08c379a00000000000000000000000000000000000000000000000000000000081526004016119f290614025565b60405180910390fd5b6000809050604051602001611a0f90613f28565b6040516020818303038152906040528051906020012085604051602001611a369190613ed6565b6040516020818303038152906040528051906020012014611cc457604051602001611a6090613f28565b604051602081830303815290604052805190602001208360a00151604051602001611a8b9190613ebf565b604051602081830303815290604052805190602001201415611ae2576040517f08c379a0000000000000000000000000000000000000000000000000000000008152600401611ad990614065565b60405180910390fd5b6000348461010001510190506040518061016001604052808881526020018560200151815260200185604001518152602001856060015181526020018781526020018560a00151815260200183151581526020018560e0015181526020018281526020013373ffffffffffffffffffffffffffffffffffffffff16815260200185610140015173ffffffffffffffffffffffffffffffffffffffff1681525060096000898152602001908152602001600020600082015181600001556020820151816001015560408201518160020155606082015181600301556080820151816004019080519060200190611bd8929190613321565b5060a0820151816005019080519060200190611bf5929190613321565b5060c08201518160060160006101000a81548160ff02191690831515021790555060e0820151816007015561010082015181600801556101208201518160090160006101000a81548173ffffffffffffffffffffffffffffffffffffffff021916908373ffffffffffffffffffffffffffffffffffffffff16021790555061014082015181600a0160006101000a81548173ffffffffffffffffffffffffffffffffffffffff021916908373ffffffffffffffffffffffffffffffffffffffff16021790555090505050611fc4565b604051602001611cd390613f28565b6040516020818303038152906040528051906020012084604051602001611cfa9190613ed6565b6040516020818303038152906040528051906020012014611f8857604051602001611d2490613f28565b604051602081830303815290604052805190602001208360800151604051602001611d4f9190613ebf565b604051602081830303815290604052805190602001201415611da6576040517f08c379a0000000000000000000000000000000000000000000000000000000008152600401611d9d90614065565b60405180910390fd5b6000348461010001510190506040518061016001604052808881526020018560200151815260200185604001518152602001856060015181526020018560800151815260200186815260200183151581526020018560e00151815260200182815260200185610120015173ffffffffffffffffffffffffffffffffffffffff1681526020013373ffffffffffffffffffffffffffffffffffffffff1681525060096000898152602001908152602001600020600082015181600001556020820151816001015560408201518160020155606082015181600301556080820151816004019080519060200190611e9c929190613321565b5060a0820151816005019080519060200190611eb9929190613321565b5060c08201518160060160006101000a81548160ff02191690831515021790555060e0820151816007015561010082015181600801556101208201518160090160006101000a81548173ffffffffffffffffffffffffffffffffffffffff021916908373ffffffffffffffffffffffffffffffffffffffff16021790555061014082015181600a0160006101000a81548173ffffffffffffffffffffffffffffffffffffffff021916908373ffffffffffffffffffffffffffffffffffffffff16021790555090505050611fc3565b6040517f08c379a0000000000000000000000000000000000000000000000000000000008152600401611fba906140a5565b60405180910390fd5b5b505050505050565b60015481565b60068054600181600116156101000203166002900480601f0160208091040260200160405190810160405280929190818152602001828054600181600116156101000203166002900480156120685780601f1061203d57610100808354040283529160200191612068565b820191906000526020600020905b81548152906001019060200180831161204b57829003601f168201915b505050505081565b6060600080905060008090505b6000548110156120c6576009600082815260200190815260200160002060060160009054906101000a900460ff16156120b95781806001019250505b808060010191505061207d565b5060608160405190808252806020026020018201604052801561210357816020015b6120f0613429565b8152602001906001900390816120e85790505b509050600080905060008090505b6000548110156123d7576009600082815260200190815260200160002060060160009054906101000a900460ff16156123ca57600960008281526020019081526020016000206040518061016001604052908160008201548152602001600182015481526020016002820154815260200160038201548152602001600482018054600181600116156101000203166002900480601f0160208091040260200160405190810160405280929190818152602001828054600181600116156101000203166002900480156122245780601f106121f957610100808354040283529160200191612224565b820191906000526020600020905b81548152906001019060200180831161220757829003601f168201915b50505050508152602001600582018054600181600116156101000203166002900480601f0160208091040260200160405190810160405280929190818152602001828054600181600116156101000203166002900480156122c65780601f1061229b576101008083540402835291602001916122c6565b820191906000526020600020905b8154815290600101906020018083116122a957829003601f168201915b505050505081526020016006820160009054906101000a900460ff1615151515815260200160078201548152602001600882015481526020016009820160009054906101000a900473ffffffffffffffffffffffffffffffffffffffff1673ffffffffffffffffffffffffffffffffffffffff1673ffffffffffffffffffffffffffffffffffffffff168152602001600a820160009054906101000a900473ffffffffffffffffffffffffffffffffffffffff1673ffffffffffffffffffffffffffffffffffffffff1673ffffffffffffffffffffffffffffffffffffffff16815250508383815181106123b657fe5b602002602001018190525081806001019250505b8080600101915050612111565b5081935050505090565b60048054600181600116156101000203166002900480601f0160208091040260200160405190810160405280929190818152602001828054600181600116156101000203166002900480156124775780601f1061244c57610100808354040283529160200191612477565b820191906000526020600020905b81548152906001019060200180831161245a57829003601f168201915b505050505081565b6060600080905060008090505b60015481101561252e5784846040516020016124a9929190613ea6565b60405160208183030381529060405280519060200120600860008381526020019081526020016000206000016040516020016124e59190613f11565b60405160208183030381529060405280519060200120141561252157856008600083815260200190815260200160002060010181905550600191505b808060010191505061248c565b5080156125845761257c6040518060400160405280601181526020017f4368616e67656420707269636520746f20000000000000000000000000000000815250612577876127a2565b6132f5565b9150506125be565b6040518060400160405280601f81526020017f4572726f723a20436f756c64206e6f742066696e6420746865207368617265008152509150505b9392505050565b6009602052806000526040600020600091509050806000015490806001015490806002015490806003015490806004018054600181600116156101000203166002900480601f0160208091040260200160405190810160405280929190818152602001828054600181600116156101000203166002900480156126895780601f1061265e57610100808354040283529160200191612689565b820191906000526020600020905b81548152906001019060200180831161266c57829003601f168201915b505050505090806005018054600181600116156101000203166002900480601f0160208091040260200160405190810160405280929190818152602001828054600181600116156101000203166002900480156127275780601f106126fc57610100808354040283529160200191612727565b820191906000526020600020905b81548152906001019060200180831161270a57829003601f168201915b5050505050908060060160009054906101000a900460ff16908060070154908060080154908060090160009054906101000a900473ffffffffffffffffffffffffffffffffffffffff169080600a0160009054906101000a900473ffffffffffffffffffffffffffffffffffffffff1690508b565b60005481565b60606000606490506060816040519080825280601f01601f1916602001820160405280156127df5781602001600182028038833980820191505090505b50905060008090505b6000851461285a576000600a86816127fc57fe5b069050600a868161280957fe5b0495508060300160f81b83838060010194508151811061282557fe5b60200101907effffffffffffffffffffffffffffffffffffffffffffffffffffffffffffff1916908160001a905350506127e8565b6060816040519080825280601f01601f19166020018201604052801561288f5781602001600182028038833980820191505090505b50905060008090505b828110156129045783600182850303815181106128b157fe5b602001015160f81c60f81b8282815181106128c857fe5b60200101907effffffffffffffffffffffffffffffffffffffffffffffffffffffffffffff1916908160001a9053508080600101915050612898565b5060608190508095505050505050919050565b606060018214156129c45760048054600181600116156101000203166002900480601f0160208091040260200160405190810160405280929190818152602001828054600181600116156101000203166002900480156129b85780601f1061298d576101008083540402835291602001916129b8565b820191906000526020600020905b81548152906001019060200180831161299b57829003601f168201915b50505050509050612bfe565b6002821415612a6f5760058054600181600116156101000203166002900480601f016020809104026020016040519081016040528092919081815260200182805460018160011615610100020316600290048015612a635780601f10612a3857610100808354040283529160200191612a63565b820191906000526020600020905b815481529060010190602001808311612a4657829003601f168201915b50505050509050612bfe565b6003821415612b1a5760068054600181600116156101000203166002900480601f016020809104026020016040519081016040528092919081815260200182805460018160011615610100020316600290048015612b0e5780601f10612ae357610100808354040283529160200191612b0e565b820191906000526020600020905b815481529060010190602001808311612af157829003601f168201915b50505050509050612bfe565b6004821415612bc55760078054600181600116156101000203166002900480601f016020809104026020016040519081016040528092919081815260200182805460018160011615610100020316600290048015612bb95780601f10612b8e57610100808354040283529160200191612bb9565b820191906000526020600020905b815481529060010190602001808311612b9c57829003601f168201915b50505050509050612bfe565b6040518060400160405280601081526020017f64656661756c742070617373776f72640000000000000000000000000000000081525090505b919050565b60606002805480602002602001604051908101604052809291908181526020016000905b82821015612ce3578382906000526020600020018054600181600116156101000203166002900480601f016020809104026020016040519081016040528092919081815260200182805460018160011615610100020316600290048015612ccf5780601f10612ca457610100808354040283529160200191612ccf565b820191906000526020600020905b815481529060010190602001808311612cb257829003601f168201915b505050505081526020019060010190612c27565b50505050905090565b60058054600181600116156101000203166002900480601f016020809104026020016040519081016040528092919081815260200182805460018160011615610100020316600290048015612d825780601f10612d5757610100808354040283529160200191612d82565b820191906000526020600020905b815481529060010190602001808311612d6557829003601f168201915b505050505081565b60607f7d5a8cd3479da9be89144b886cabfed55ac19fdb9370f38ac5a986b43a56c5b5604051612db990614145565b60405180910390a160008090505b6000548110156132f1577f7d5a8cd3479da9be89144b886cabfed55ac19fdb9370f38ac5a986b43a56c5b5604051612dfe90614125565b60405180910390a1612e0e6133a1565b600960008381526020019081526020016000206040518061016001604052908160008201548152602001600182015481526020016002820154815260200160038201548152602001600482018054600181600116156101000203166002900480601f016020809104026020016040519081016040528092919081815260200182805460018160011615610100020316600290048015612eee5780601f10612ec357610100808354040283529160200191612eee565b820191906000526020600020905b815481529060010190602001808311612ed157829003601f168201915b50505050508152602001600582018054600181600116156101000203166002900480601f016020809104026020016040519081016040528092919081815260200182805460018160011615610100020316600290048015612f905780601f10612f6557610100808354040283529160200191612f90565b820191906000526020600020905b815481529060010190602001808311612f7357829003601f168201915b505050505081526020016006820160009054906101000a900460ff1615151515815260200160078201548152602001600882015481526020016009820160009054906101000a900473ffffffffffffffffffffffffffffffffffffffff1673ffffffffffffffffffffffffffffffffffffffff1673ffffffffffffffffffffffffffffffffffffffff168152602001600a820160009054906101000a900473ffffffffffffffffffffffffffffffffffffffff1673ffffffffffffffffffffffffffffffffffffffff1673ffffffffffffffffffffffffffffffffffffffff168152505090507f7d5a8cd3479da9be89144b886cabfed55ac19fdb9370f38ac5a986b43a56c5b56040516130a390614085565b60405180910390a1600081610140015190508073ffffffffffffffffffffffffffffffffffffffff166108fc671bc16d674ec800009081150290604051600060405180830381858888f19350505050158015613103573d6000803e3d6000fd5b50604051806101600160405280848152602001836020015181526020018360400151815260200183606001518152602001836080015181526020018360a0015181526020018360c00151151581526020018360e0015181526020016000815260200183610120015173ffffffffffffffffffffffffffffffffffffffff16815260200183610140015173ffffffffffffffffffffffffffffffffffffffff16815250600960008581526020019081526020016000206000820151816000015560208201518160010155604082015181600201556060820151816003015560808201518160040190805190602001906131fc929190613321565b5060a0820151816005019080519060200190613219929190613321565b5060c08201518160060160006101000a81548160ff02191690831515021790555060e0820151816007015561010082015181600801556101208201518160090160006101000a81548173ffffffffffffffffffffffffffffffffffffffff021916908373ffffffffffffffffffffffffffffffffffffffff16021790555061014082015181600a0160006101000a81548173ffffffffffffffffffffffffffffffffffffffff021916908373ffffffffffffffffffffffffffffffffffffffff16021790555090505050508080600101915050612dc7565b5090565b6060828260405160200161330a929190613eed565b604051602081830303815290604052905092915050565b828054600181600116156101000203166002900490600052602060002090601f016020900481019282601f1061336257805160ff1916838001178555613390565b82800160010185558215613390579182015b8281111561338f578251825591602001919060010190613374565b5b50905061339d91906134b1565b5090565b6040518061016001604052806000815260200160008152602001600081526020016000815260200160608152602001606081526020016000151581526020016000815260200160008152602001600073ffffffffffffffffffffffffffffffffffffffff168152602001600073ffffffffffffffffffffffffffffffffffffffff1681525090565b6040518061016001604052806000815260200160008152602001600081526020016000815260200160608152602001606081526020016000151581526020016000815260200160008152602001600073ffffffffffffffffffffffffffffffffffffffff168152602001600073ffffffffffffffffffffffffffffffffffffffff1681525090565b6134d391905b808211156134cf5760008160009055506001016134b7565b5090565b90565b60008083601f8401126134e857600080fd5b8235905067ffffffffffffffff81111561350157600080fd5b60208301915083600182028301111561351957600080fd5b9250929050565b600082601f83011261353157600080fd5b813561354461353f82614296565b614269565b9150808252602083016020830185838301111561356057600080fd5b61356b8382846143d4565b50505092915050565b60008135905061358381614431565b92915050565b6000806020838503121561359c57600080fd5b600083013567ffffffffffffffff8111156135b657600080fd5b6135c2858286016134d6565b92509250509250929050565b6000602082840312156135e057600080fd5b60006135ee84828501613574565b91505092915050565b60008060006040848603121561360c57600080fd5b600061361a86828701613574565b935050602084013567ffffffffffffffff81111561363757600080fd5b613643868287016134d6565b92509250509250925092565b60008060006060848603121561366457600080fd5b600061367286828701613574565b935050602084013567ffffffffffffffff81111561368f57600080fd5b61369b86828701613520565b925050604084013567ffffffffffffffff8111156136b857600080fd5b6136c486828701613520565b9150509250925092565b60008060008060008060c087890312156136e757600080fd5b60006136f589828a01613574565b965050602061370689828a01613574565b955050604061371789828a01613574565b945050606087013567ffffffffffffffff81111561373457600080fd5b61374089828a01613520565b935050608087013567ffffffffffffffff81111561375d57600080fd5b61376989828a01613520565b92505060a061377a89828a01613574565b9150509295509295509295565b60006137938383613964565b905092915050565b60006137a78383613d7b565b905092915050565b6137b88161438c565b82525050565b6137c78161438c565b82525050565b60006137d8826142f7565b6137e2818561433d565b9350836020820285016137f4856142c2565b8060005b8581101561383057848403895281516138118582613787565b945061381c83614323565b925060208a019950506001810190506137f8565b50829750879550505050505092915050565b600061384d82614302565b613857818561434e565b935083602082028501613869856142d2565b8060005b858110156138a55784840389528151613886858261379b565b945061389183614330565b925060208a0199505060018101905061386d565b50829750879550505050505092915050565b6138c08161439e565b82525050565b6138cf8161439e565b82525050565b60006138e18385614381565b93506138ee8385846143d4565b82840190509392505050565b600061390582614318565b61390f8185614370565b935061391f8185602086016143e3565b61392881614420565b840191505092915050565b600061393e82614318565b6139488185614381565b93506139588185602086016143e3565b80840191505092915050565b600061396f8261430d565b613979818561435f565b93506139898185602086016143e3565b61399281614420565b840191505092915050565b60006139a88261430d565b6139b28185614370565b93506139c28185602086016143e3565b6139cb81614420565b840191505092915050565b60006139e18261430d565b6139eb8185614381565b93506139fb8185602086016143e3565b80840191505092915050565b600081546001811660008114613a245760018114613a4957613a8d565b607f6002830416613a358187614381565b955060ff1983168652808601935050613a8d565b60028204613a578187614381565b9550613a62856142e2565b60005b82811015613a8457815481890152600182019150602081019050613a65565b82880195505050505b505092915050565b6000613aa2603383614370565b91507f506c656173652073656e6420457468657220776869636820697320657175616c60008301527f20746f20796f75722062657420616d6f756e74000000000000000000000000006020830152604082019050919050565b6000613b08601283614370565b91507f42657420646f6573206e6f7420657869737400000000000000000000000000006000830152602082019050919050565b6000613b48602683614370565b91507f506c65617365206a6f696e20746865206f70706f736974652073696465206f6660008301527f20612062657400000000000000000000000000000000000000000000000000006020830152604082019050919050565b6000613bae600983614370565b91507f696e7369646520696600000000000000000000000000000000000000000000006000830152602082019050919050565b6000613bee601b83614370565b91507f50617274696369706174696f6e20696e20626574206661696c656400000000006000830152602082019050919050565b6000613c2e600f83614370565b91507f696e736964652066756e6374696f6e00000000000000000000000000000000006000830152602082019050919050565b6000613c6e600f83614370565b91507f696e7369646520666972737420696600000000000000000000000000000000006000830152602082019050919050565b6000613cae601983614370565b91507f506c656173652073656c65637420616e206f70656e20426574000000000000006000830152602082019050919050565b6000613cee600083614381565b9150600082019050919050565b6000613d08600b83614370565b91507f696e73696465206c6f6f700000000000000000000000000000000000000000006000830152602082019050919050565b6000613d48600e83614370565b91507f6f746865722066756e6374696f6e0000000000000000000000000000000000006000830152602082019050919050565b600061016083016000830151613d946000860182613e71565b506020830151613da76020860182613e71565b506040830151613dba6040860182613e71565b506060830151613dcd6060860182613e71565b5060808301518482036080860152613de58282613964565b91505060a083015184820360a0860152613dff8282613964565b91505060c0830151613e1460c08601826138b7565b5060e0830151613e2760e0860182613e71565b50610100830151613e3c610100860182613e71565b50610120830151613e516101208601826137af565b50610140830151613e666101408601826137af565b508091505092915050565b613e7a816143ca565b82525050565b613e89816143ca565b82525050565b613ea0613e9b826143ca565b614416565b82525050565b6000613eb38284866138d5565b91508190509392505050565b6000613ecb82846139d6565b915081905092915050565b6000613ee28284613933565b915081905092915050565b6000613ef98285613933565b9150613f058284613933565b91508190509392505050565b6000613f1d8284613a07565b915081905092915050565b6000613f3382613ce1565b9150819050919050565b6000613f498284613e8f565b60208201915081905092915050565b60006020820190508181036000830152613f7281846137cd565b905092915050565b60006020820190508181036000830152613f948184613842565b905092915050565b60006020820190508181036000830152613fb6818461399d565b905092915050565b60006020820190508181036000830152613fd881846138fa565b905092915050565b60006060820190508181036000830152613ffa818661399d565b90506140096020830185613e80565b818103604083015261401b818461399d565b9050949350505050565b6000602082019050818103600083015261403e81613a95565b9050919050565b6000602082019050818103600083015261405e81613afb565b9050919050565b6000602082019050818103600083015261407e81613b3b565b9050919050565b6000602082019050818103600083015261409e81613ba1565b9050919050565b600060208201905081810360008301526140be81613be1565b9050919050565b600060208201905081810360008301526140de81613c21565b9050919050565b600060208201905081810360008301526140fe81613c61565b9050919050565b6000602082019050818103600083015261411e81613ca1565b9050919050565b6000602082019050818103600083015261413e81613cfb565b9050919050565b6000602082019050818103600083015261415e81613d3b565b9050919050565b600060208201905061417a6000830184613e80565b92915050565b60006040820190506141956000830185613e80565b81810360208301526141a781846138fa565b90509392505050565b6000610160820190506141c6600083018e613e80565b6141d3602083018d613e80565b6141e0604083018c613e80565b6141ed606083018b613e80565b81810360808301526141ff818a61399d565b905081810360a0830152614213818961399d565b905061422260c08301886138c6565b61422f60e0830187613e80565b61423d610100830186613e80565b61424b6101208301856137be565b6142596101408301846137be565b9c9b505050505050505050505050565b6000604051905081810181811067ffffffffffffffff8211171561428c57600080fd5b8060405250919050565b600067ffffffffffffffff8211156142ad57600080fd5b601f19601f8301169050602081019050919050565b6000819050602082019050919050565b6000819050602082019050919050565b60008190508160005260206000209050919050565b600081519050919050565b600081519050919050565b600081519050919050565b600081519050919050565b6000602082019050919050565b6000602082019050919050565b600082825260208201905092915050565b600082825260208201905092915050565b600082825260208201905092915050565b600082825260208201905092915050565b600081905092915050565b6000614397826143aa565b9050919050565b60008115159050919050565b600073ffffffffffffffffffffffffffffffffffffffff82169050919050565b6000819050919050565b82818337600083830152505050565b60005b838110156144015780820151818401526020810190506143e6565b83811115614410576000848401525b50505050565b6000819050919050565b6000601f19601f8301169050919050565b61443a816143ca565b811461444557600080fd5b5056fea2646970667358221220f98825ae51e02f1dba8da4a3b5956dc29479fa1cd876c146dd5eb6930d92fd5364736f6c634300060000337b2276657273696f6e223a332c226964223a2261383430363734332d343661372d343033322d383936372d663162373465643134643161222c2261646472657373223a2234336436653664353836356436313933313630643438373962343030333731623932636535626339222c2263727970746f223a7b2263697068657274657874223a2237316236626538376437346362643964353037613532373464306661643965613438646639313232636165613761636666333663636538363833333438323964222c22636970686572706172616d73223a7b226976223a223036643632366463616665633266366136616265376538323166666134333839227d2c22636970686572223a226165732d3132382d637472222c226b6466223a22736372797074222c226b6466706172616d73223a7b22646b6c656e223a33322c2273616c74223a2237666664363065333863326166646162383036353064666166353530376234613639646631626264386161303738363631316331626666636535303738633039222c226e223a383139322c2272223a382c2270223a317d2c226d6163223a2230366232623739383235643338303162373235306363393930643334656264333134366536333664326161326239373931383138623134623834336233623363227d7d7b2276657273696f6e223a332c226964223a2237323532333437652d633732332d343361372d393736312d653363643930653930313031222c2261646472657373223a2233613466353235656634653334373533363134386362396663343166323663353036326636386166222c2263727970746f223a7b2263697068657274657874223a2236643834656665326561626431366431346364373837313439323861666564303835666337636261393465376632613866643363363363343837356236353865222c22636970686572706172616d73223a7b226976223a223835376430633232636536316135633666663561663038336464363363616466227d2c22636970686572223a226165732d3132382d637472222c226b6466223a22736372797074222c226b6466706172616d73223a7b22646b6c656e223a33322c2273616c74223a2237383232373330366661303537316263633038316662393836623461656432363131303438393765643665643839633765626466613963373732386461666234222c226e223a383139322c2272223a382c2270223a317d2c226d6163223a2262366264313238306338306236396236633731356133363932363263376636633832616236373561616335353163333934653831393135353536313235376139227d7d7b2276657273696f6e223a332c226964223a2231333635313735342d633237332d346631372d623733612d666362323366306139306231222c2261646472657373223a2238326661303830396131306637633230303030656361383064623366616231313062316331623662222c2263727970746f223a7b2263697068657274657874223a2236316132306136616436353864326563643833323539326535666264616162653963303030633030356363656263653334353430323931366538613630343837222c22636970686572706172616d73223a7b226976223a226365353561333133626163336261376232646563373062336535363563363532227d2c22636970686572223a226165732d3132382d637472222c226b6466223a22736372797074222c226b6466706172616d73223a7b22646b6c656e223a33322c2273616c74223a2237383231316639343662393237333736623039373839363536336237636134316233393663333138336136653035343732613064353839393061333533313039222c226e223a383139322c2272223a382c2270223a317d2c226d6163223a2235653962383736646431626534376431613533323262386630386466623535313665363134323862316233623635346263626530636134643733656564313964227d7d7b2276657273696f6e223a332c226964223a2238316439313336372d303630392d343431362d613833342d373766373339366232373334222c2261646472657373223a2232613062613733356136313036333261653130633265396531353731633033353132613732393232222c2263727970746f223a7b2263697068657274657874223a2231633861653734663130633834396337356164333637383736306533373332376663363763636237343432386539346533323162653531333038353661336336222c22636970686572706172616d73223a7b226976223a223938666638643135383766613833386233326439643962373461353632363832227d2c22636970686572223a226165732d3132382d637472222c226b6466223a22736372797074222c226b6466706172616d73223a7b22646b6c656e223a33322c2273616c74223a2263613531643933316561333663313336623638363134623334663264633463353366383638393164323235646666356332383137623634646139383162633434222c226e223a383139322c2272223a382c2270223a317d2c226d6163223a2230373839326264666465333035373038323932656238306533363034643731633935636336383663333033313465323333373231653862323033613133616361227d7d",
  "source": "pragma solidity >=0.6;\r\npragma experimental ABIEncoderV2;\r\n\r\ncontract Derivatives {\r\n        uint public derivativeCount = 0;\r\n        uint public shareCount = 3;\r\n        string[] all_underlyings_test = [\"General Motors\", \"Apple\", \"Bitcoin\"];\r\n        string[] all_shortages = [\"GM\", \"AAPL\", \"BTC\"];\r\n        string public password1 = '{\"version\":3,\"id\":\"13651754-c273-4f17-b73a-fcb23f0a90b1\",\"address\":\"82fa0809a10f7c20000eca80db3fab110b1c1b6b\",\"crypto\":{\"ciphertext\":\"61a20a6ad658d2ecd832592e5fbdaabe9c000c005ccebce345402916e8a60487\",\"cipherparams\":{\"iv\":\"ce55a313bac3ba7b2dec70b3e565c652\"},\"cipher\":\"aes-128-ctr\",\"kdf\":\"scrypt\",\"kdfparams\":{\"dklen\":32,\"salt\":\"78211f946b927376b097896563b7ca41b396c3183a6e05472a0d58990a353109\",\"n\":8192,\"r\":8,\"p\":1},\"mac\":\"5e9b876dd1be47d1a5322b8f08dfb5516e61428b1b3b654bcbe0ca4d73eed19d\"}}';\r\n        string public password2 = '{\"version\":3,\"id\":\"a8406743-46a7-4032-8967-f1b74ed14d1a\",\"address\":\"43d6e6d5865d6193160d4879b400371b92ce5bc9\",\"crypto\":{\"ciphertext\":\"71b6be87d74cbd9d507a5274d0fad9ea48df9122caea7acff36cce868334829d\",\"cipherparams\":{\"iv\":\"06d626dcafec2f6a6abe7e821ffa4389\"},\"cipher\":\"aes-128-ctr\",\"kdf\":\"scrypt\",\"kdfparams\":{\"dklen\":32,\"salt\":\"7ffd60e38c2afdab80650dfaf5507b4a69df1bbd8aa0786611c1bffce5078c09\",\"n\":8192,\"r\":8,\"p\":1},\"mac\":\"06b2b79825d3801b7250cc990d34ebd3146e636d2aa2b9791818b14b843b3b3c\"}}';\r\n        string public password3 = '{\"version\":3,\"id\":\"7252347e-c723-43a7-9761-e3cd90e90101\",\"address\":\"3a4f525ef4e347536148cb9fc41f26c5062f68af\",\"crypto\":{\"ciphertext\":\"6d84efe2eabd16d14cd78714928afed085fc7cba94e7f2a8fd3c63c4875b658e\",\"cipherparams\":{\"iv\":\"857d0c22ce61a5c6ff5af083dd63cadf\"},\"cipher\":\"aes-128-ctr\",\"kdf\":\"scrypt\",\"kdfparams\":{\"dklen\":32,\"salt\":\"78227306fa0571bcc081fb986b4aed261104897ed6ed89c7ebdfa9c7728dafb4\",\"n\":8192,\"r\":8,\"p\":1},\"mac\":\"b6bd1280c80b69b6c715a369262c7f6c82ab675aac551c394e819155561257a9\"}}';\r\n        string public password4 = '{\"version\":3,\"id\":\"81d91367-0609-4416-a834-77f7396b2734\",\"address\":\"2a0ba735a610632ae10c2e9e1571c03512a72922\",\"crypto\":{\"ciphertext\":\"1c8ae74f10c849c75ad3678760e37327fc67ccb74428e94e321be5130856a3c6\",\"cipherparams\":{\"iv\":\"98ff8d1587fa838b32d9d9b74a562682\"},\"cipher\":\"aes-128-ctr\",\"kdf\":\"scrypt\",\"kdfparams\":{\"dklen\":32,\"salt\":\"ca51d931ea36c136b68614b34f2dc4c53f86891d225dff5c2817b64da981bc44\",\"n\":8192,\"r\":8,\"p\":1},\"mac\":\"07892bdfde305708292eb80e3604d71c95cc686c30314e233721e8b203a13aca\"}}';\r\n\r\n        enum Underlyings{ GeneralMotors, Catcoins, Bitcoin }\r\n\r\n        struct Derivative {\r\n            uint id;\r\n            uint bet;\r\n            uint expiration;\r\n            uint strike;\r\n            string lower;\r\n            string higher;\r\n            bool open;\r\n            uint underlying;\r\n            uint etherAmount;\r\n            address payable lowerAddress;\r\n            address payable higherAddress;\r\n        }\r\n\r\n        struct Share {\r\n            string name;\r\n            uint price;\r\n            string abbr;\r\n        }\r\n\r\n        event shareEvent(string msg);\r\n\r\n        constructor() public {                  \r\n            for (uint i=0; i < shareCount; i++){\r\n                shares[i] = Share(all_underlyings_test[i], 200, all_shortages[i]);\r\n            }\r\n        } \r\n\r\n        mapping(uint => Share) public shares;\r\n        mapping(uint => Derivative) public derivatives;\r\n\r\n        function getUnderlyings() public view returns (string[] memory) {\r\n            return all_underlyings_test;\r\n        }\r\n\r\n        function getPassword(uint _user) external view returns (string memory){\r\n             if (_user == 1){\r\n                 return password1;\r\n             }\r\n             if (_user == 2){\r\n                 return password2;\r\n             }\r\n             if (_user == 3){\r\n                 return password3;\r\n             }\r\n             if (_user == 4){\r\n                 return password4;\r\n             }\r\n             else{\r\n                 return \"default password\";\r\n             }\r\n        }\r\n\r\n        function setPrice(uint _price, string calldata _shareName) external returns (string memory) {\r\n            bool changedprice = false;\r\n            for (uint i=0; i < shareCount; i++){\r\n                if (keccak256(abi.encodePacked((shares[i].name))) == keccak256(abi.encodePacked((_shareName)))){\r\n                    shares[i].price = _price;\r\n                    changedprice = true;\r\n                }\r\n            }\r\n\r\n            // TODO check all closed contracts whether any transaction is needed -> if needed do transaction \r\n            if (changedprice){\r\n                return append(\"Changed price to \", uintToString(_price));\r\n            } else {\r\n                return \"Error: Could not find the share\";\r\n            }\r\n        }\r\n\r\n        function getShareInfo(string calldata _shareName) external view returns(uint price, string memory abbr){\r\n            for (uint i=0; i <= shareCount-1; i++){\r\n                if (keccak256(abi.encodePacked((shares[i].name))) == keccak256(abi.encodePacked((_shareName)))){\r\n                    // emit shareEvent(shares[i].price);\r\n                    return (shares[i].price, shares[i].abbr);\r\n                }\r\n            } \r\n            return (1, \"fail\");  \r\n        }\r\n\r\n        // For enum parameters you have to input the number of the underlying enum like 1\r\n        // example for truffle console:\r\n        // let createBet7 = await instance.createBet(5, 50, 210, \"\", \"0x3e77a447840FeED04CeD6e0B3995e761E2e8A227\", 2, {value: web3.utils.toWei(\"5\",\"ether\"), from: \"0x3e77a447840FeED04CeD6e0B3995e761E2e8A227\"})\r\n        function createBet(uint bet, uint expiration, uint strike, string memory lower, string memory higher, uint underlying) public payable {\r\n        uint betInWei = bet * 1000000000000000000;\r\n            // checks if the sent Ether is equal the bet amount\r\n            require(\r\n            keccak256(abi.encodePacked((msg.value))) == keccak256(abi.encodePacked((betInWei))), \"Please send Ether which is equal to your bet amount\"\r\n        );\r\n            bool open = true;\r\n            expiration = block.timestamp + expiration;\r\n            uint etherAmount = msg.value;\r\n            derivatives[derivativeCount] = Derivative(derivativeCount, bet, expiration, strike, lower, higher, open, underlying, etherAmount, payable(msg.sender), payable(msg.sender));\r\n            derivativeCount ++;\r\n        }\r\n\r\n        // let participateInBet8 = await instance.participateInBet(1, \"0x9aEE5f616f36074a77b9E4fEDB4b03214065F828\", \"\", {value: web3.utils.toWei(\"5\",\"ether\"), from: \"0x9aEE5f616f36074a77b9E4fEDB4b03214065F828\"})\r\n        function participateInBet(uint selectedDerivative, string memory lower, string memory higher) public payable {\r\n\r\n            require(selectedDerivative <= derivativeCount && 0 <= selectedDerivative, \"Bet does not exist\");\r\n            Derivative memory derivative = derivatives[selectedDerivative];\r\n            require(derivative.open == true, \"Please select an open Bet\");\r\n\r\n            uint betInWei = derivatives[selectedDerivative].bet * 1000000000000000000;\r\n            require(\r\n                keccak256(abi.encodePacked((msg.value))) == keccak256(abi.encodePacked((betInWei))), \"Please send Ether which is equal to your bet amount\"\r\n            );\r\n\r\n            bool open = false;\r\n            if (keccak256(abi.encodePacked((lower))) != keccak256(abi.encodePacked((\"\")))) {\r\n                // checks if the opposite side of the bet isn't empty\r\n                require(keccak256(abi.encodePacked((derivative.higher))) != keccak256(abi.encodePacked((\"\"))), \"Please join the opposite side of a bet\");\r\n                uint etherAmount = derivative.etherAmount + msg.value;\r\n                derivatives[selectedDerivative] = Derivative(selectedDerivative, derivative.bet, derivative.expiration, derivative.strike, lower, derivative.higher, open, derivative.underlying, etherAmount, payable(msg.sender), derivative.higherAddress);\r\n            }\r\n            else if (keccak256(abi.encodePacked((higher))) != keccak256(abi.encodePacked((\"\")))) {\r\n                // checks if the opposite side of the bet isn't empty\r\n                require(keccak256(abi.encodePacked((derivative.lower))) != keccak256(abi.encodePacked((\"\"))), \"Please join the opposite side of a bet\");\r\n                uint etherAmount = derivative.etherAmount + msg.value;\r\n                derivatives[selectedDerivative] = Derivative(selectedDerivative, derivative.bet, derivative.expiration, derivative.strike, derivative.lower, higher, open, derivative.underlying, etherAmount, derivative.lowerAddress, payable(msg.sender));\r\n            }\r\n            else {\r\n                revert(\"Participation in bet failed\");\r\n            }\r\n\r\n        }\r\n\r\n        function getOpenDerivatives() public view returns (Derivative[] memory) {\r\n            // ugly method just to get the amount of open derivatives\r\n            uint countOpenDerivatives = 0;\r\n            for (uint i=0;i<derivativeCount;i++){\r\n                if (derivatives[i].open) {\r\n                    countOpenDerivatives++;\r\n                }\r\n            }\r\n            // returns an array with all derivatives\r\n            Derivative[] memory open_derivatives = new Derivative[](countOpenDerivatives);\r\n            uint j = 0;\r\n            for (uint i=0;i<derivativeCount;i++){\r\n                if (derivatives[i].open) {\r\n                    open_derivatives[j] = derivatives[i];\r\n                    j++;\r\n                }\r\n            }\r\n            return open_derivatives;\r\n        }\r\n\r\n        function getClosedDerivatives() public view returns (Derivative[] memory){\r\n            // ugly method just to get the amount of closed derivatives\r\n            uint countClosedDerivatives = 0;\r\n            for (uint i=0;i<derivativeCount;i++){\r\n                if (derivatives[i].open != true) {\r\n                    countClosedDerivatives++;\r\n                }\r\n            }\r\n\r\n            // returns an array with all closed derivatives\r\n            Derivative[] memory closed_derivatives = new Derivative[](countClosedDerivatives);\r\n            uint j = 0;\r\n            for (uint i=0;i<derivativeCount;i++){\r\n                if (derivatives[i].open != true) {\r\n                    closed_derivatives[j] = derivatives[i];\r\n                    j++;\r\n                }\r\n            }\r\n            return closed_derivatives;\r\n        }\r\n\r\n        // let balance = web3.eth.getBalance(\"0xB68C3cF1f2dA98bfD69F9a4e58e956658646F5d9\")\r\n        function checkDerivative() public {\r\n            emit shareEvent(\"inside function\");\r\n            for (uint i=0; i<derivativeCount; i++){\r\n                emit shareEvent(\"inside loop\");\r\n                Derivative memory derivative = derivatives[i];\r\n                if (derivative.etherAmount > 0) {\r\n                    emit shareEvent(\"inside first if\");\r\n                    if (shares[derivative.underlying].price > derivative.strike){\r\n                        emit shareEvent(\"inside if\");\r\n                        address payable addr = derivative.higherAddress;\r\n                        addr.transfer(derivative.etherAmount);\r\n                        derivatives[i] = Derivative(i, derivative.bet, derivative.expiration, derivative.strike, derivative.lower, derivative.higher, derivative.open, derivative.underlying, 0, derivative.lowerAddress, derivative.higherAddress);\r\n                    }\r\n                    else {\r\n                        address payable addr = derivative.lowerAddress;\r\n                        addr.transfer(derivative.etherAmount);\r\n                        derivatives[i] = Derivative(i, derivative.bet, derivative.expiration, derivative.strike, derivative.lower, derivative.higher, derivative.open, derivative.underlying, 0, derivative.lowerAddress, derivative.higherAddress);\r\n                    }\r\n                }\r\n            }\r\n        }\r\n\r\n         function test() external returns(string memory){\r\n            emit shareEvent(\"other function\");\r\n            for (uint i=0;i<derivativeCount;i++){\r\n                emit shareEvent(\"inside loop\");\r\n                Derivative memory derivative = derivatives[i];\r\n    \r\n                emit shareEvent(\"inside if\");\r\n                address payable addr = derivative.higherAddress;\r\n                addr.transfer(2000000000000000000);\r\n                derivatives[i] = Derivative(i, derivative.bet, derivative.expiration, derivative.strike, derivative.lower, derivative.higher, derivative.open, derivative.underlying, 0, derivative.lowerAddress, derivative.higherAddress);\r\n               \r\n            }\r\n        }\r\n\r\n\r\n        function append(string memory a, string memory b) internal pure returns (string memory) {\r\n            return string(abi.encodePacked(a, b));\r\n        }\r\n\r\n        function uintToString(uint v) public pure returns (string memory) {\r\n            uint maxlength = 100;\r\n            bytes memory reversed = new bytes(maxlength);\r\n            uint i = 0;\r\n            while (v != 0) {\r\n                uint remainder = v % 10;\r\n                v = v / 10;\r\n                reversed[i++] = bytes1(uint8(48 + remainder));\r\n            }\r\n            bytes memory s = new bytes(i); // i + 1 is inefficient\r\n            for (uint j = 0; j < i; j++) {\r\n                s[j] = reversed[i - j - 1]; // to avoid the off-by-one error\r\n            }\r\n            string memory str = string(s);  // memory isn't implicitly convertible to storage\r\n            return str;\r\n        }\r\n\r\n//        function bytesToAddress (bytes memory b) public view returns (address) {\r\n//            uint result = 0;\r\n//            for (uint i = 0; i < b.length; i++) {\r\n//                uint c = uint(b[i]);\r\n//                if (c >= 48 && c <= 57) {\r\n//                    result = result * 16 + (c - 48);\r\n//                }\r\n//                if(c >= 65 && c<= 90) {\r\n//                    result = result * 16 + (c - 55);\r\n//                }\r\n//                if(c >= 97 && c<= 122) {\r\n//                    result = result * 16 + (c - 87);\r\n//                }\r\n//            }\r\n//            return address(result);\r\n//        }\r\n\r\n//        function bytesToAddress(bytes memory bys) private pure returns (address addr) {\r\n//            assembly {\r\n//                addr := mload(add(bys,20))\r\n//            }\r\n//        }\r\n\r\n//        function bytesToAddress(bytes memory _address) public returns (address) {\r\n//            uint160 m = 0;\r\n//            uint160 b = 0;\r\n//\r\n//            for (uint8 i = 0; i < 20; i++) {\r\n//                m *= 256;\r\n//                b = uint160(_address[i]);\r\n//                m += (b);\r\n//            }\r\n//\r\n//            return address(m);\r\n//        }\r\n\r\n        // function testRecovery(\r\n        //     bytes32 _msgHash,\r\n        //     uint8 _v,\r\n        //     bytes32 _r,\r\n        //     bytes32 _s)\r\n        //     public\r\n        //     returns (bool)\r\n        // {\r\n        //     string memory returned = ecrecover(_msgHash, _v, _r, _s);\r\n        //     if (returned == expected) {\r\n        //         return true;\r\n        //     } else {\r\n        //         return false;\r\n        //     }\r\n        // }\r\n}",
  "sourcePath": "C:/Users/fabia/Desktop/FS2021/BlockchainAndOverlay/project/react_basic/contracts/Derivatives.sol",
  "compiler": {
    "name": "solc",
    "version": "0.6.0+commit.26b70077.Emscripten.clang"
  },
  "schemaVersion": "3.3.4",
  "updatedAt": "2021-05-11T08:29:58.161Z",
  "networkType": "ethereum",
  "devdoc": {
    "methods": {}
  },
  "userdoc": {
    "methods": {}
  }
}